{
  "contractName": "InsightUserData",
  "abi": [
    {
      "constant": true,
      "inputs": [
        {
          "name": "addr",
          "type": "address"
        },
        {
          "name": "roleName",
          "type": "string"
        }
      ],
      "name": "checkRole",
      "outputs": [],
      "payable": false,
      "stateMutability": "view",
      "type": "function"
    },
    {
      "constant": true,
      "inputs": [
        {
          "name": "fields",
          "type": "bytes32[]"
        },
        {
          "name": "isRegistered",
          "type": "bool"
        }
      ],
      "name": "coverageBy",
      "outputs": [
        {
          "name": "count",
          "type": "uint256"
        }
      ],
      "payable": false,
      "stateMutability": "view",
      "type": "function"
    },
    {
      "constant": true,
      "inputs": [
        {
          "name": "addr",
          "type": "address"
        },
        {
          "name": "roleName",
          "type": "string"
        }
      ],
      "name": "hasRole",
      "outputs": [
        {
          "name": "",
          "type": "bool"
        }
      ],
      "payable": false,
      "stateMutability": "view",
      "type": "function"
    },
    {
      "constant": false,
      "inputs": [],
      "name": "unpause",
      "outputs": [],
      "payable": false,
      "stateMutability": "nonpayable",
      "type": "function"
    },
    {
      "constant": true,
      "inputs": [
        {
          "name": "addr",
          "type": "address"
        },
        {
          "name": "fields",
          "type": "bytes32[]"
        },
        {
          "name": "cb",
          "type": "address"
        }
      ],
      "name": "compute",
      "outputs": [
        {
          "name": "",
          "type": "uint256"
        }
      ],
      "payable": false,
      "stateMutability": "view",
      "type": "function"
    },
    {
      "constant": false,
      "inputs": [
        {
          "name": "imei",
          "type": "bytes16"
        },
        {
          "name": "fields",
          "type": "bytes32[]"
        },
        {
          "name": "values",
          "type": "bytes32[]"
        }
      ],
      "name": "updateUserData",
      "outputs": [],
      "payable": false,
      "stateMutability": "nonpayable",
      "type": "function"
    },
    {
      "constant": true,
      "inputs": [],
      "name": "totalUserCount",
      "outputs": [
        {
          "name": "total",
          "type": "uint256"
        }
      ],
      "payable": false,
      "stateMutability": "view",
      "type": "function"
    },
    {
      "constant": true,
      "inputs": [],
      "name": "paused",
      "outputs": [
        {
          "name": "",
          "type": "bool"
        }
      ],
      "payable": false,
      "stateMutability": "view",
      "type": "function"
    },
    {
      "constant": false,
      "inputs": [],
      "name": "pause",
      "outputs": [],
      "payable": false,
      "stateMutability": "nonpayable",
      "type": "function"
    },
    {
      "constant": false,
      "inputs": [
        {
          "name": "addr",
          "type": "address"
        },
        {
          "name": "roleName",
          "type": "string"
        }
      ],
      "name": "adminRemoveRole",
      "outputs": [],
      "payable": false,
      "stateMutability": "nonpayable",
      "type": "function"
    },
    {
      "constant": true,
      "inputs": [],
      "name": "owner",
      "outputs": [
        {
          "name": "",
          "type": "address"
        }
      ],
      "payable": false,
      "stateMutability": "view",
      "type": "function"
    },
    {
      "constant": true,
      "inputs": [],
      "name": "matrixAddr",
      "outputs": [
        {
          "name": "",
          "type": "address"
        }
      ],
      "payable": false,
      "stateMutability": "view",
      "type": "function"
    },
    {
      "constant": false,
      "inputs": [
        {
          "name": "addr",
          "type": "address"
        },
        {
          "name": "roleName",
          "type": "string"
        }
      ],
      "name": "adminAddRole",
      "outputs": [],
      "payable": false,
      "stateMutability": "nonpayable",
      "type": "function"
    },
    {
      "constant": false,
      "inputs": [
        {
          "name": "addr",
          "type": "address"
        },
        {
          "name": "imei",
          "type": "bytes16"
        }
      ],
      "name": "registerAddress",
      "outputs": [],
      "payable": false,
      "stateMutability": "nonpayable",
      "type": "function"
    },
    {
      "constant": true,
      "inputs": [
        {
          "name": "fields",
          "type": "bytes32[]"
        },
        {
          "name": "values",
          "type": "bytes32[]"
        },
        {
          "name": "isRegistered",
          "type": "bool"
        }
      ],
      "name": "countBy",
      "outputs": [
        {
          "name": "count",
          "type": "uint256"
        }
      ],
      "payable": false,
      "stateMutability": "view",
      "type": "function"
    },
    {
      "constant": true,
      "inputs": [],
      "name": "ROLE_ADMIN",
      "outputs": [
        {
          "name": "",
          "type": "string"
        }
      ],
      "payable": false,
      "stateMutability": "view",
      "type": "function"
    },
    {
      "constant": false,
      "inputs": [
        {
          "name": "newOwner",
          "type": "address"
        }
      ],
      "name": "transferOwnership",
      "outputs": [],
      "payable": false,
      "stateMutability": "nonpayable",
      "type": "function"
    },
    {
      "inputs": [
        {
          "name": "_address",
          "type": "address"
        }
      ],
      "payable": false,
      "stateMutability": "nonpayable",
      "type": "constructor"
    },
    {
      "anonymous": false,
      "inputs": [],
      "name": "Pause",
      "type": "event"
    },
    {
      "anonymous": false,
      "inputs": [],
      "name": "Unpause",
      "type": "event"
    },
    {
      "anonymous": false,
      "inputs": [
        {
          "indexed": true,
          "name": "previousOwner",
          "type": "address"
        },
        {
          "indexed": true,
          "name": "newOwner",
          "type": "address"
        }
      ],
      "name": "OwnershipTransferred",
      "type": "event"
    },
    {
      "anonymous": false,
      "inputs": [
        {
          "indexed": false,
          "name": "addr",
          "type": "address"
        },
        {
          "indexed": false,
          "name": "roleName",
          "type": "string"
        }
      ],
      "name": "RoleAdded",
      "type": "event"
    },
    {
      "anonymous": false,
      "inputs": [
        {
          "indexed": false,
          "name": "addr",
          "type": "address"
        },
        {
          "indexed": false,
          "name": "roleName",
          "type": "string"
        }
      ],
      "name": "RoleRemoved",
      "type": "event"
    },
    {
      "constant": true,
      "inputs": [
        {
          "name": "fields",
          "type": "bytes32[]"
        },
        {
          "name": "values",
          "type": "bytes32[]"
        }
      ],
      "name": "computeMatrixData",
      "outputs": [
        {
          "name": "result",
          "type": "uint256"
        }
      ],
      "payable": false,
      "stateMutability": "view",
      "type": "function"
    },
    {
      "constant": false,
      "inputs": [
        {
          "name": "_address",
          "type": "address"
        }
      ],
      "name": "setMatrixAddress",
      "outputs": [],
      "payable": false,
      "stateMutability": "nonpayable",
      "type": "function"
    },
    {
      "constant": true,
      "inputs": [
        {
          "name": "user",
          "type": "address"
        },
        {
          "name": "fields",
          "type": "bytes32[]"
        }
      ],
      "name": "analysis",
      "outputs": [
        {
          "name": "result",
          "type": "uint256"
        }
      ],
      "payable": false,
      "stateMutability": "view",
      "type": "function"
    }
  ],
  "bytecode": "0x60606040526004805460a060020a60ff021916905534156200002057600080fd5b604051602080620018a58339810160405280805191506200008590503360408051908101604052600581527f61646d696e0000000000000000000000000000000000000000000000000000006020820152640100000000620014016200010a82021704565b600162000093818062000261565b5060048054600160a060020a03338116600160a060020a03199092168217928390559190911614620000c457600080fd5b600160a060020a0381161515620000da57600080fd5b60058054600160a060020a03909216600160a060020a0319928316811790915560068054909216179055620002c3565b6200018c826000836040518082805190602001908083835b60208310620001435780518252601f19909201916020918201910162000122565b6001836020036101000a03801982511681845116808217855250505050505090500191505090815260200160405190819003902090640100000000620015066200023c82021704565b7fbfec83d64eaa953f2708271a023ab9ee82057f8f3578d548c1a4ba0b5b7004898282604051600160a060020a038316815260406020820181815290820183818151815260200191508051906020019080838360005b83811015620001fc578082015183820152602001620001e2565b50505050905090810190601f1680156200022a5780820380516001836020036101000a031916815260200191505b50935050505060405180910390a15050565b600160a060020a0316600090815260209190915260409020805460ff19166001179055565b815481835581811511620002905760020281600202836000526020600020918201910162000290919062000295565b505050565b620002c091905b80821115620002bc578054600160a060020a03191681556002016200029c565b5090565b90565b6115d280620002d36000396000f3006060604052600436106100f85763ffffffff60e060020a6000350416630988ca8c81146100fd5780631485d87e1461015e578063217fe6c6146101c35780633f4ba83a14610236578063441d9fa51461024957806345fcdf41146102b15780634bb86af0146103585780635c975abb1461036b5780638456cb591461037e57806388cee87e146103915780638da5cb5b146103f05780639f4aad541461041f578063ac5cb32514610432578063b16b88f614610451578063b25fa92c146104ae578063ce1305211461050d578063d129f49c14610542578063d391014b146105d5578063dc5065ef1461065f578063f2fde38b146106ee575b600080fd5b341561010857600080fd5b61015c60048035600160a060020a03169060446024803590810190830135806020601f8201819004810201604051908101604052818152929190602084018383808284375094965061070d95505050505050565b005b341561016957600080fd5b6101b160046024813581810190830135806020818102016040519081016040528093929190818152602001838360200280828437509496505050509135151591506107879050565b60405190815260200160405180910390f35b34156101ce57600080fd5b61022260048035600160a060020a03169060446024803590810190830135806020601f8201819004810201604051908101604052818152929190602084018383808284375094965061084a95505050505050565b604051901515815260200160405180910390f35b341561024157600080fd5b61015c6108c9565b341561025457600080fd5b6101b160048035600160a060020a031690604460248035908101908301358060208082020160405190810160405280939291908181526020018383602002808284375094965050509235600160a060020a03169250610948915050565b34156102bc57600080fd5b61015c600480356fffffffffffffffffffffffffffffffff191690604460248035908101908301358060208082020160405190810160405280939291908181526020018383602002808284378201915050505050509190803590602001908201803590602001908080602002602001604051908101604052809392919081815260200183836020028082843750949650610b1395505050505050565b341561036357600080fd5b6101b1610c2d565b341561037657600080fd5b610222610c37565b341561038957600080fd5b61015c610c47565b341561039c57600080fd5b61015c60048035600160a060020a03169060446024803590810190830135806020601f82018190048102016040519081016040528181529291906020840183838082843750949650610ccb95505050505050565b34156103fb57600080fd5b610403610cfd565b604051600160a060020a03909116815260200160405180910390f35b341561042a57600080fd5b610403610d0c565b341561043d57600080fd5b61015c600160a060020a0360043516610d1b565b341561045c57600080fd5b6101b160048035600160a060020a0316906044602480359081019083013580602080820201604051908101604052809392919081815260200183836020028082843750949650610d8495505050505050565b34156104b957600080fd5b61015c60048035600160a060020a03169060446024803590810190830135806020601f82018190048102016040519081016040528181529291906020840183838082843750949650610e6c95505050505050565b341561051857600080fd5b61015c600160a060020a03600435166fffffffffffffffffffffffffffffffff1960243516610e9e565b341561054d57600080fd5b6101b1600460248135818101908301358060208181020160405190810160405280939291908181526020018383602002808284378201915050505050509190803590602001908201803590602001908080602002602001604051908101604052809392919081815260200183836020028082843750949650505050913515159150610f879050565b34156105e057600080fd5b6105e8611054565b60405160208082528190810183818151815260200191508051906020019080838360005b8381101561062457808201518382015260200161060c565b50505050905090810190601f1680156106515780820380516001836020036101000a031916815260200191505b509250505060405180910390f35b341561066a57600080fd5b6101b160046024813581810190830135806020818102016040519081016040528093929190818152602001838360200280828437820191505050505050919080359060200190820180359060200190808060200260200160405190810160405280939291908181526020018383602002808284375094965061107695505050505050565b34156106f957600080fd5b61015c600160a060020a036004351661120f565b610783826000836040518082805190602001908083835b602083106107435780518252601f199092019160209182019101610724565b6001836020036101000a0380198251168184511680821785525050505050509050019150509081526020016040519081900390209063ffffffff6112aa16565b5050565b600060018180805b6001548410156108405760018054859081106107a757fe5b906000526020600020906002020192508515806107cd57508254600160a060020a031615155b1561083557506001905060005b865181101561082857600060018401818984815181106107f657fe5b90602001906020020151815260208101919091526040016000205414156108205760009150610828565b6001016107da565b8115610835576001909401935b60019093019261078f565b5050505092915050565b60006108c2836000846040518082805190602001908083835b602083106108825780518252601f199092019160209182019101610863565b6001836020036101000a0380198251168184511680821785525050505050509050019150509081526020016040519081900390209063ffffffff6112bf16565b9392505050565b60045433600160a060020a039081169116146108e457600080fd5b60045460a060020a900460ff1615156108fc57600080fd5b6004805474ff0000000000000000000000000000000000000000191690557f7805862f689e2f13df9f062ff482ad3ad112aca9e0847911ed832e158c525b3360405160405180910390a1565b60008061095361152b565b600160a060020a03861660009081526003602052604081205492508080841161097b57600080fd5b865160405180591061098a5750595b90808252806020026020018201604052509250600091505b8651821015610a145760018054859081106109b957fe5b906000526020600020906002020160010160008884815181106109d857fe5b9060200190602002015181526020810191909152604001600020548383815181106109ff57fe5b602090810290910101526001909101906109a2565b5084600160a060020a03811663dc5065ef88856000604051602001526040518363ffffffff1660e060020a028152600401808060200180602001838103835285818151815260200191508051906020019060200280838360005b83811015610a86578082015183820152602001610a6e565b50505050905001838103825284818151815260200191508051906020019060200280838360005b83811015610ac5578082015183820152602001610aad565b50505050905001945050505050602060405180830381600087803b1515610aeb57600080fd5b6102c65a03f11515610afc57600080fd5b50505060405180519550505b505050509392505050565b600080610b3e33604080519081016040526005815260d960020a6430b236b4b702602082015261070d565b8251845114610b4c57600080fd5b6fffffffffffffffffffffffffffffffff1985166000908152600260205260409020549150811515610bb3576001805492508290610b8c9082810161153d565b506fffffffffffffffffffffffffffffffff19851660009081526002602052604090208290555b5060005b8351811015610c2657828181518110610bcc57fe5b906020019060200201516001805484908110610be457fe5b90600052602060002090600202016001016000868481518110610c0357fe5b906020019060200201518152602081019190915260400160002055600101610bb7565b5050505050565b6001546000190190565b60045460a060020a900460ff1681565b60045433600160a060020a03908116911614610c6257600080fd5b60045460a060020a900460ff1615610c7957600080fd5b6004805474ff0000000000000000000000000000000000000000191660a060020a1790557f6985a02210a168e66602d3235cb6db0e70f92b3ba4d376a33c0f3d9434bff62560405160405180910390a1565b610cf333604080519081016040526005815260d960020a6430b236b4b702602082015261070d565b61078382826112de565b600454600160a060020a031681565b600654600160a060020a031681565b60045433600160a060020a03908116911614610d3657600080fd5b600160a060020a0381161515610d4b57600080fd5b60058054600160a060020a0390921673ffffffffffffffffffffffffffffffffffffffff19928316811790915560068054909216179055565b6000600160a060020a0383161515610d9b57600080fd5b600554600160a060020a031663441d9fa584843060006040516020015260405160e060020a63ffffffff8616028152600160a060020a03808516600483019081529083166044830152606060248301908152909160640184818151815260200191508051906020019060200280838360005b83811015610e25578082015183820152602001610e0d565b50505050905001945050505050602060405180830381600087803b1515610e4b57600080fd5b6102c65a03f11515610e5c57600080fd5b5050506040518051949350505050565b610e9433604080519081016040526005815260d960020a6430b236b4b702602082015261070d565b6107838282611401565b6000610ec833604080519081016040526005815260d960020a6430b236b4b702602082015261070d565b506fffffffffffffffffffffffffffffffff198116600090815260026020526040812054908111610ef857600080fd5b600160a060020a03831660009081526003602052604090205415610f1b57600080fd5b600160a060020a03831660009081526003602052604090208190556001805484919083908110610f4757fe5b60009182526020909120600290910201805473ffffffffffffffffffffffffffffffffffffffff1916600160a060020a0392909216919091179055505050565b600060018180805b600154841015610b08576001805485908110610fa757fe5b90600052602060002090600202019250851580610fcd57508254600160a060020a031615155b1561104957506001905060005b875181101561103c57868181518110610fef57fe5b906020019060200201516001840160008a848151811061100b57fe5b90602001906020020151815260208101919091526040016000205414611034576000915061103c565b600101610fda565b8115611049576001909401935b600190930192610f8f565b604080519081016040526005815260d960020a6430b236b4b702602082015281565b6000806000806000806000875189511461108f57600080fd5b507f7573657247656e6465720000000000000000000000000000000000000000000094507f7573657241676500000000000000000000000000000000000000000000000000935060009250829150819050805b8851816fffffffffffffffffffffffffffffffff1610156111d85785896fffffffffffffffffffffffffffffffff83168151811061111c57fe5b90602001906020020151141561115e5787816fffffffffffffffffffffffffffffffff168151811061114a57fe5b906020019060200201516001949094019392505b84896fffffffffffffffffffffffffffffffff83168151811061117d57fe5b9060200190602002015114156111bf5787816fffffffffffffffffffffffffffffffff16815181106111ab57fe5b906020019060200201516001949094019391505b8360ff16600214156111d0576111d8565b6001016110e2565b5060e060020a90047f0100000000000000000000000000000000000000000000000000000000000000909104179695505050505050565b60045433600160a060020a0390811691161461122a57600080fd5b600160a060020a038116151561123f57600080fd5b600454600160a060020a0380831691167f8be0079c531659141344cd1fd0a4f28419497f9722a3daafe3b4186f6b6457e060405160405180910390a36004805473ffffffffffffffffffffffffffffffffffffffff1916600160a060020a0392909216919091179055565b6112b482826112bf565b151561078357600080fd5b600160a060020a03166000908152602091909152604090205460ff1690565b611354826000836040518082805190602001908083835b602083106113145780518252601f1990920191602091820191016112f5565b6001836020036101000a0380198251168184511680821785525050505050509050019150509081526020016040519081900390209063ffffffff6114e416565b7fd211483f91fc6eff862467f8de606587a30c8fc9981056f051b897a418df803a8282604051600160a060020a038316815260406020820181815290820183818151815260200191508051906020019080838360005b838110156113c25780820151838201526020016113aa565b50505050905090810190601f1680156113ef5780820380516001836020036101000a031916815260200191505b50935050505060405180910390a15050565b611477826000836040518082805190602001908083835b602083106114375780518252601f199092019160209182019101611418565b6001836020036101000a0380198251168184511680821785525050505050509050019150509081526020016040519081900390209063ffffffff61150616565b7fbfec83d64eaa953f2708271a023ab9ee82057f8f3578d548c1a4ba0b5b7004898282604051600160a060020a03831681526040602082018181529082018381815181526020019150805190602001908083836000838110156113c25780820151838201526020016113aa565b600160a060020a0316600090815260209190915260409020805460ff19169055565b600160a060020a0316600090815260209190915260409020805460ff19166001179055565b60206040519081016040526000815290565b81548183558181151161156957600202816002028360005260206000209182019101611569919061156e565b505050565b6115a391905b8082111561159f57805473ffffffffffffffffffffffffffffffffffffffff19168155600201611574565b5090565b905600a165627a7a72305820fa59f2e01a5c73452e783c185cb5eac166aadf9da4abf96e9bf4de19dba1823a0029",
  "source": "pragma solidity ^0.4.17;\nimport \"./MatrixBasicData.sol\";\nimport \"../../node_modules/zeppelin-solidity/contracts/lifecycle/Pausable.sol\";\n\n\ncontract InsightUserData is MatrixBasicData, Pausable {\n\n    MatrixBasicData matrix;\n\n    address public matrixAddr;\n\n    function computeMatrixData(bytes32[] fields, bytes32[] values) public view returns (uint256 result) {\n      require(fields.length == values.length);\n\n      bytes32 gender = bytes32(\"userGender\");\n      bytes32 age = bytes32(\"userAge\");\n      uint8 count = 0;\n      uint256 genderValue = 0;\n      uint256 ageValue = 0;\n\n      for (uint128 i = 0; i < fields.length; i++) {\n        if (fields[i] == gender) {\n          genderValue = uint256(values[i]);\n          count++;\n        }\n        if (fields[i] == age) {\n          ageValue = uint256(values[i]);\n          count++;\n        }\n\n        if (count == 2) {\n          break;\n        }\n      }\n      result = uint256((ageValue >> 224) | (genderValue >> 248)); // the value is 'utf8' here, check wiki: http://wiki.n.miui.com/pages/viewpage.action?pageId=74820527\n    }\n\n    function InsightUserData(address _address) public onlyOwner {\n      require(_address != address(0));\n      matrix = MatrixBasicData(_address);\n      matrixAddr = _address;\n    }\n\n    function setMatrixAddress(address _address) public onlyOwner {\n      require(_address != address(0));\n      matrix = MatrixBasicData(_address);\n      matrixAddr = _address;\n    }\n\n    function analysis(address user, bytes32[] fields) public view returns (uint256 result) {\n        require(user != address(0));\n        result = matrix.compute(user, fields, this);\n    }\n}\n",
  "sourcePath": "D:\\src\\Git\\hackathon2018\\hackathon-demo\\truffle\\contracts\\InsightUserData.sol",
  "compiler": {
    "name": "solc",
    "version": "0.4.19+commit.c4cbbb05.Emscripten.clang"
  },
  "schemaVersion": "2.0.0",
  "updatedAt": "2018-04-11T05:58:11.895Z"
}