{
  "contractName": "MatrixBasicData",
  "abi": [
    {
      "constant": true,
      "inputs": [
        {
          "name": "addr",
          "type": "address"
        },
        {
          "name": "roleName",
          "type": "string"
        }
      ],
      "name": "checkRole",
      "outputs": [],
      "payable": false,
      "stateMutability": "view",
      "type": "function"
    },
    {
      "constant": true,
      "inputs": [
        {
          "name": "fields",
          "type": "bytes32[]"
        },
        {
          "name": "isRegistered",
          "type": "bool"
        }
      ],
      "name": "coverageBy",
      "outputs": [
        {
          "name": "count",
          "type": "uint256"
        }
      ],
      "payable": false,
      "stateMutability": "view",
      "type": "function"
    },
    {
      "constant": true,
      "inputs": [
        {
          "name": "addr",
          "type": "address"
        },
        {
          "name": "roleName",
          "type": "string"
        }
      ],
      "name": "hasRole",
      "outputs": [
        {
          "name": "",
          "type": "bool"
        }
      ],
      "payable": false,
      "stateMutability": "view",
      "type": "function"
    },
    {
      "constant": true,
      "inputs": [
        {
          "name": "addr",
          "type": "address"
        },
        {
          "name": "fields",
          "type": "bytes32[]"
        },
        {
          "name": "cb",
          "type": "address"
        }
      ],
      "name": "compute",
      "outputs": [
        {
          "name": "",
          "type": "uint256"
        }
      ],
      "payable": false,
      "stateMutability": "view",
      "type": "function"
    },
    {
      "constant": false,
      "inputs": [
        {
          "name": "imei",
          "type": "bytes16"
        },
        {
          "name": "fields",
          "type": "bytes32[]"
        },
        {
          "name": "values",
          "type": "bytes32[]"
        }
      ],
      "name": "updateUserData",
      "outputs": [],
      "payable": false,
      "stateMutability": "nonpayable",
      "type": "function"
    },
    {
      "constant": true,
      "inputs": [],
      "name": "totalUserCount",
      "outputs": [
        {
          "name": "total",
          "type": "uint256"
        }
      ],
      "payable": false,
      "stateMutability": "view",
      "type": "function"
    },
    {
      "constant": false,
      "inputs": [
        {
          "name": "addr",
          "type": "address"
        },
        {
          "name": "roleName",
          "type": "string"
        }
      ],
      "name": "adminRemoveRole",
      "outputs": [],
      "payable": false,
      "stateMutability": "nonpayable",
      "type": "function"
    },
    {
      "constant": false,
      "inputs": [
        {
          "name": "addr",
          "type": "address"
        },
        {
          "name": "roleName",
          "type": "string"
        }
      ],
      "name": "adminAddRole",
      "outputs": [],
      "payable": false,
      "stateMutability": "nonpayable",
      "type": "function"
    },
    {
      "constant": false,
      "inputs": [
        {
          "name": "addr",
          "type": "address"
        },
        {
          "name": "imei",
          "type": "bytes16"
        }
      ],
      "name": "registerAddress",
      "outputs": [],
      "payable": false,
      "stateMutability": "nonpayable",
      "type": "function"
    },
    {
      "constant": true,
      "inputs": [
        {
          "name": "fields",
          "type": "bytes32[]"
        },
        {
          "name": "values",
          "type": "bytes32[]"
        },
        {
          "name": "isRegistered",
          "type": "bool"
        }
      ],
      "name": "countBy",
      "outputs": [
        {
          "name": "count",
          "type": "uint256"
        }
      ],
      "payable": false,
      "stateMutability": "view",
      "type": "function"
    },
    {
      "constant": true,
      "inputs": [],
      "name": "ROLE_ADMIN",
      "outputs": [
        {
          "name": "",
          "type": "string"
        }
      ],
      "payable": false,
      "stateMutability": "view",
      "type": "function"
    },
    {
      "inputs": [],
      "payable": false,
      "stateMutability": "nonpayable",
      "type": "constructor"
    },
    {
      "anonymous": false,
      "inputs": [
        {
          "indexed": false,
          "name": "addr",
          "type": "address"
        },
        {
          "indexed": false,
          "name": "roleName",
          "type": "string"
        }
      ],
      "name": "RoleAdded",
      "type": "event"
    },
    {
      "anonymous": false,
      "inputs": [
        {
          "indexed": false,
          "name": "addr",
          "type": "address"
        },
        {
          "indexed": false,
          "name": "roleName",
          "type": "string"
        }
      ],
      "name": "RoleRemoved",
      "type": "event"
    }
  ],
  "bytecode": "0x606060405234156200001057600080fd5b6200005d3360408051908101604052600581527f61646d696e000000000000000000000000000000000000000000000000000000602082015264010000000062000d756200007282021704565b60016200006b8180620001c9565b506200022b565b620000f4826000836040518082805190602001908083835b60208310620000ab5780518252601f1990920191602091820191016200008a565b6001836020036101000a0380198251168184511680821785525050505050509050019150509081526020016040519081900390209064010000000062000e7a620001a482021704565b7fbfec83d64eaa953f2708271a023ab9ee82057f8f3578d548c1a4ba0b5b7004898282604051600160a060020a038316815260406020820181815290820183818151815260200191508051906020019080838360005b83811015620001645780820151838201526020016200014a565b50505050905090810190601f168015620001925780820380516001836020036101000a031916815260200191505b50935050505060405180910390a15050565b600160a060020a0316600090815260209190915260409020805460ff19166001179055565b815481835581811511620001f857600202816002028360005260206000209182019101620001f89190620001fd565b505050565b6200022891905b8082111562000224578054600160a060020a031916815560020162000204565b5090565b90565b610f46806200023b6000396000f3006060604052600436106100ae5763ffffffff7c01000000000000000000000000000000000000000000000000000000006000350416630988ca8c81146100b35780631485d87e14610114578063217fe6c614610179578063441d9fa5146101ec57806345fcdf41146102545780634bb86af0146102fb57806388cee87e1461030e578063b25fa92c1461036d578063ce130521146103cc578063d129f49c14610401578063d391014b14610494575b600080fd5b34156100be57600080fd5b61011260048035600160a060020a03169060446024803590810190830135806020601f8201819004810201604051908101604052818152929190602084018383808284375094965061051e95505050505050565b005b341561011f57600080fd5b61016760046024813581810190830135806020818102016040519081016040528093929190818152602001838360200280828437509496505050509135151591506105989050565b60405190815260200160405180910390f35b341561018457600080fd5b6101d860048035600160a060020a03169060446024803590810190830135806020601f8201819004810201604051908101604052818152929190602084018383808284375094965061065b95505050505050565b604051901515815260200160405180910390f35b34156101f757600080fd5b61016760048035600160a060020a031690604460248035908101908301358060208082020160405190810160405280939291908181526020018383602002808284375094965050509235600160a060020a031692506106da915050565b341561025f57600080fd5b610112600480356fffffffffffffffffffffffffffffffff1916906044602480359081019083013580602080820201604051908101604052809392919081815260200183836020028082843782019150505050505091908035906020019082018035906020019080806020026020016040519081016040528093929190818152602001838360200280828437509496506108be95505050505050565b341561030657600080fd5b6101676109d8565b341561031957600080fd5b61011260048035600160a060020a03169060446024803590810190830135806020601f820181900481020160405190810160405281815292919060208401838380828437509496506109e295505050505050565b341561037857600080fd5b61011260048035600160a060020a03169060446024803590810190830135806020601f82018190048102016040519081016040528181529291906020840183838082843750949650610a1495505050505050565b34156103d757600080fd5b610112600160a060020a03600435166fffffffffffffffffffffffffffffffff1960243516610a46565b341561040c57600080fd5b610167600460248135818101908301358060208181020160405190810160405280939291908181526020018383602002808284378201915050505050509190803590602001908201803590602001908080602002602001604051908101604052809392919081815260200183836020028082843750949650505050913515159150610b2f9050565b341561049f57600080fd5b6104a7610bfc565b60405160208082528190810183818151815260200191508051906020019080838360005b838110156104e35780820151838201526020016104cb565b50505050905090810190601f1680156105105780820380516001836020036101000a031916815260200191505b509250505060405180910390f35b610594826000836040518082805190602001908083835b602083106105545780518252601f199092019160209182019101610535565b6001836020036101000a0380198251168184511680821785525050505050509050019150509081526020016040519081900390209063ffffffff610c1e16565b5050565b600060018180805b6001548410156106515760018054859081106105b857fe5b906000526020600020906002020192508515806105de57508254600160a060020a031615155b1561064657506001905060005b8651811015610639576000600184018189848151811061060757fe5b90602001906020020151815260208101919091526040016000205414156106315760009150610639565b6001016105eb565b8115610646576001909401935b6001909301926105a0565b5050505092915050565b60006106d3836000846040518082805190602001908083835b602083106106935780518252601f199092019160209182019101610674565b6001836020036101000a0380198251168184511680821785525050505050509050019150509081526020016040519081900390209063ffffffff610c3316565b9392505050565b6000806106e5610e9f565b600160a060020a03861660009081526003602052604081205492508080841161070d57600080fd5b865160405180591061071c5750595b90808252806020026020018201604052509250600091505b86518210156107a657600180548590811061074b57fe5b9060005260206000209060020201600101600088848151811061076a57fe5b90602001906020020151815260208101919091526040016000205483838151811061079157fe5b60209081029091010152600190910190610734565b5084600160a060020a03811663dc5065ef88856000604051602001526040518363ffffffff167c0100000000000000000000000000000000000000000000000000000000028152600401808060200180602001838103835285818151815260200191508051906020019060200280838360005b83811015610831578082015183820152602001610819565b50505050905001838103825284818151815260200191508051906020019060200280838360005b83811015610870578082015183820152602001610858565b50505050905001945050505050602060405180830381600087803b151561089657600080fd5b6102c65a03f115156108a757600080fd5b50505060405180519550505b505050509392505050565b6000806108e933604080519081016040526005815260d960020a6430b236b4b702602082015261051e565b82518451146108f757600080fd5b6fffffffffffffffffffffffffffffffff198516600090815260026020526040902054915081151561095e57600180549250829061093790828101610eb1565b506fffffffffffffffffffffffffffffffff19851660009081526002602052604090208290555b5060005b83518110156109d15782818151811061097757fe5b90602001906020020151600180548490811061098f57fe5b906000526020600020906002020160010160008684815181106109ae57fe5b906020019060200201518152602081019190915260400160002055600101610962565b5050505050565b6001546000190190565b610a0a33604080519081016040526005815260d960020a6430b236b4b702602082015261051e565b6105948282610c52565b610a3c33604080519081016040526005815260d960020a6430b236b4b702602082015261051e565b6105948282610d75565b6000610a7033604080519081016040526005815260d960020a6430b236b4b702602082015261051e565b506fffffffffffffffffffffffffffffffff198116600090815260026020526040812054908111610aa057600080fd5b600160a060020a03831660009081526003602052604090205415610ac357600080fd5b600160a060020a03831660009081526003602052604090208190556001805484919083908110610aef57fe5b60009182526020909120600290910201805473ffffffffffffffffffffffffffffffffffffffff1916600160a060020a0392909216919091179055505050565b600060018180805b6001548410156108b3576001805485908110610b4f57fe5b90600052602060002090600202019250851580610b7557508254600160a060020a031615155b15610bf157506001905060005b8751811015610be457868181518110610b9757fe5b906020019060200201516001840160008a8481518110610bb357fe5b90602001906020020151815260208101919091526040016000205414610bdc5760009150610be4565b600101610b82565b8115610bf1576001909401935b600190930192610b37565b604080519081016040526005815260d960020a6430b236b4b702602082015281565b610c288282610c33565b151561059457600080fd5b600160a060020a03166000908152602091909152604090205460ff1690565b610cc8826000836040518082805190602001908083835b60208310610c885780518252601f199092019160209182019101610c69565b6001836020036101000a0380198251168184511680821785525050505050509050019150509081526020016040519081900390209063ffffffff610e5816565b7fd211483f91fc6eff862467f8de606587a30c8fc9981056f051b897a418df803a8282604051600160a060020a038316815260406020820181815290820183818151815260200191508051906020019080838360005b83811015610d36578082015183820152602001610d1e565b50505050905090810190601f168015610d635780820380516001836020036101000a031916815260200191505b50935050505060405180910390a15050565b610deb826000836040518082805190602001908083835b60208310610dab5780518252601f199092019160209182019101610d8c565b6001836020036101000a0380198251168184511680821785525050505050509050019150509081526020016040519081900390209063ffffffff610e7a16565b7fbfec83d64eaa953f2708271a023ab9ee82057f8f3578d548c1a4ba0b5b7004898282604051600160a060020a0383168152604060208201818152908201838181518152602001915080519060200190808383600083811015610d36578082015183820152602001610d1e565b600160a060020a0316600090815260209190915260409020805460ff19169055565b600160a060020a0316600090815260209190915260409020805460ff19166001179055565b60206040519081016040526000815290565b815481835581811511610edd57600202816002028360005260206000209182019101610edd9190610ee2565b505050565b610f1791905b80821115610f1357805473ffffffffffffffffffffffffffffffffffffffff19168155600201610ee8565b5090565b905600a165627a7a72305820d3a3bbc92fe663faf25633239888eceed320c5925d80ae7c8a0d95c3ffde91aa0029",
  "source": "pragma solidity ^0.4.0;\n\nimport \"../../node_modules/zeppelin-solidity/contracts/ownership/rbac/RBAC.sol\";\n\ninterface MatrixDataCallback {\n  function computeMatrixData(bytes32[] fields, bytes32[] values) public view returns (uint256);\n}\n\ncontract MatrixBasicData is RBAC {\n  struct UserData {\n    address user;\n    mapping (bytes32 => bytes32) profile;\n  }\n\n  UserData[] userData;\n\n  mapping (bytes16 => uint256) imeiToIndex;\n  mapping (address => uint256) addressToIndex;\n\n  function MatrixBasicData() public {\n    userData.length = 1;\n  }\n\n  function totalUserCount() public view returns (uint256 total) {\n    total = userData.length - 1;\n  }\n\n  function updateUserData(bytes16 imei, bytes32[] fields, bytes32[] values) public onlyAdmin {\n    require(fields.length == values.length);\n\n    uint256 idx = imeiToIndex[imei];\n    if (idx == 0) {\n      idx = userData.length;\n      userData.length++;\n      imeiToIndex[imei] = idx;\n    }\n\n    for (uint256 i = 0; i < fields.length; i++) {\n      userData[idx].profile[fields[i]] = values[i];\n    }\n  }\n\n  function registerAddress(address addr, bytes16 imei) public onlyAdmin {\n    uint256 idx = imeiToIndex[imei];\n    require(idx > 0);\n    require(addressToIndex[addr] == 0);\n\n    addressToIndex[addr] = idx;\n    userData[idx].user = addr;\n  }\n\n  function compute(address addr, bytes32[] fields, address cb) public view returns (uint256) {\n    uint256 idx = addressToIndex[addr];\n    require(idx > 0);\n\n    bytes32[] memory values = new bytes32[](fields.length);\n    for (uint256 i = 0; i < fields.length; i++) {\n      values[i] = userData[idx].profile[fields[i]];\n    }\n\n    MatrixDataCallback mdc = MatrixDataCallback(cb);\n    return mdc.computeMatrixData(fields, values);\n  }\n\n  function countBy(bytes32[] fields, bytes32[] values, bool isRegistered) public view returns (uint256 count) {\n    for (uint256 i = 1; i < userData.length; i++) {\n      UserData storage u = userData[i];\n      if (!isRegistered || u.user != address(0)) {\n        bool flag = true;\n\n        for (uint256 j = 0; j < fields.length; j++) {\n          if (u.profile[fields[j]] != values[j]) {\n            flag = false;\n            break;\n          }\n        }\n\n        if (flag) count++;\n      }\n    }\n  }\n\n  function coverageBy(bytes32[] fields, bool isRegistered) public view returns (uint256 count) {\n    for (uint256 i = 1; i < userData.length; i++) {\n      UserData storage u = userData[i];\n      if (!isRegistered || u.user != address(0)) {\n        bool flag = true;\n\n        for (uint256 j = 0; j < fields.length; j++) {\n          if (u.profile[fields[j]] == bytes32(0)) {\n            flag = false;\n            break;\n          }\n        }\n\n        if (flag) count++;\n      }\n    }\n  }\n}\n",
  "sourcePath": "D:\\src\\Git\\hackathon2018\\hackathon-demo\\truffle\\contracts\\MatrixBasicData.sol",
  "compiler": {
    "name": "solc",
    "version": "0.4.19+commit.c4cbbb05.Emscripten.clang"
  },
  "schemaVersion": "2.0.0",
  "updatedAt": "2018-04-11T05:58:11.885Z"
}