{
  "contractName": "RBAC",
  "abi": [
    {
      "constant": true,
      "inputs": [],
      "name": "ROLE_ADMIN",
      "outputs": [
        {
          "name": "",
          "type": "string"
        }
      ],
      "payable": false,
      "stateMutability": "view",
      "type": "function"
    },
    {
      "inputs": [],
      "payable": false,
      "stateMutability": "nonpayable",
      "type": "constructor"
    },
    {
      "anonymous": false,
      "inputs": [
        {
          "indexed": false,
          "name": "addr",
          "type": "address"
        },
        {
          "indexed": false,
          "name": "roleName",
          "type": "string"
        }
      ],
      "name": "RoleAdded",
      "type": "event"
    },
    {
      "anonymous": false,
      "inputs": [
        {
          "indexed": false,
          "name": "addr",
          "type": "address"
        },
        {
          "indexed": false,
          "name": "roleName",
          "type": "string"
        }
      ],
      "name": "RoleRemoved",
      "type": "event"
    },
    {
      "constant": true,
      "inputs": [
        {
          "name": "addr",
          "type": "address"
        },
        {
          "name": "roleName",
          "type": "string"
        }
      ],
      "name": "checkRole",
      "outputs": [],
      "payable": false,
      "stateMutability": "view",
      "type": "function"
    },
    {
      "constant": true,
      "inputs": [
        {
          "name": "addr",
          "type": "address"
        },
        {
          "name": "roleName",
          "type": "string"
        }
      ],
      "name": "hasRole",
      "outputs": [
        {
          "name": "",
          "type": "bool"
        }
      ],
      "payable": false,
      "stateMutability": "view",
      "type": "function"
    },
    {
      "constant": false,
      "inputs": [
        {
          "name": "addr",
          "type": "address"
        },
        {
          "name": "roleName",
          "type": "string"
        }
      ],
      "name": "adminAddRole",
      "outputs": [],
      "payable": false,
      "stateMutability": "nonpayable",
      "type": "function"
    },
    {
      "constant": false,
      "inputs": [
        {
          "name": "addr",
          "type": "address"
        },
        {
          "name": "roleName",
          "type": "string"
        }
      ],
      "name": "adminRemoveRole",
      "outputs": [],
      "payable": false,
      "stateMutability": "nonpayable",
      "type": "function"
    }
  ],
  "bytecode": "0x6060604052341561000f57600080fd5b6100593360408051908101604052600581527f61646d696e00000000000000000000000000000000000000000000000000000060208201526401000000006105a261005e82021704565b6101ad565b6100db826000836040518082805190602001908083835b602083106100945780518252601f199092019160209182019101610075565b6001836020036101000a038019825116818451168082178552505050505050905001915050908152602001604051908190039020906401000000006106a761018882021704565b7fbfec83d64eaa953f2708271a023ab9ee82057f8f3578d548c1a4ba0b5b7004898282604051600160a060020a038316815260406020820181815290820183818151815260200191508051906020019080838360005b83811015610149578082015183820152602001610131565b50505050905090810190601f1680156101765780820380516001836020036101000a031916815260200191505b50935050505060405180910390a15050565b600160a060020a0316600090815260209190915260409020805460ff19166001179055565b6106f8806101bc6000396000f30060606040526004361061006c5763ffffffff7c01000000000000000000000000000000000000000000000000000000006000350416630988ca8c8114610071578063217fe6c6146100d257806388cee87e14610145578063b25fa92c146101a4578063d391014b14610203575b600080fd5b341561007c57600080fd5b6100d060048035600160a060020a03169060446024803590810190830135806020601f8201819004810201604051908101604052818152929190602084018383808284375094965061028d95505050505050565b005b34156100dd57600080fd5b61013160048035600160a060020a03169060446024803590810190830135806020601f8201819004810201604051908101604052818152929190602084018383808284375094965061030795505050505050565b604051901515815260200160405180910390f35b341561015057600080fd5b6100d060048035600160a060020a03169060446024803590810190830135806020601f8201819004810201604051908101604052818152929190602084018383808284375094965061038695505050505050565b34156101af57600080fd5b6100d060048035600160a060020a03169060446024803590810190830135806020601f820181900481020160405190810160405281815292919060208401838380828437509496506103cd95505050505050565b341561020e57600080fd5b610216610414565b60405160208082528190810183818151815260200191508051906020019080838360005b8381101561025257808201518382015260200161023a565b50505050905090810190601f16801561027f5780820380516001836020036101000a031916815260200191505b509250505060405180910390f35b610303826000836040518082805190602001908083835b602083106102c35780518252601f1990920191602091820191016102a4565b6001836020036101000a0380198251168184511680821785525050505050509050019150509081526020016040519081900390209063ffffffff61044b16565b5050565b600061037f836000846040518082805190602001908083835b6020831061033f5780518252601f199092019160209182019101610320565b6001836020036101000a0380198251168184511680821785525050505050509050019150509081526020016040519081900390209063ffffffff61046016565b9392505050565b6103c33360408051908101604052600581527f61646d696e000000000000000000000000000000000000000000000000000000602082015261028d565b610303828261047f565b61040a3360408051908101604052600581527f61646d696e000000000000000000000000000000000000000000000000000000602082015261028d565b61030382826105a2565b60408051908101604052600581527f61646d696e000000000000000000000000000000000000000000000000000000602082015281565b6104558282610460565b151561030357600080fd5b600160a060020a03166000908152602091909152604090205460ff1690565b6104f5826000836040518082805190602001908083835b602083106104b55780518252601f199092019160209182019101610496565b6001836020036101000a0380198251168184511680821785525050505050509050019150509081526020016040519081900390209063ffffffff61068516565b7fd211483f91fc6eff862467f8de606587a30c8fc9981056f051b897a418df803a8282604051600160a060020a038316815260406020820181815290820183818151815260200191508051906020019080838360005b8381101561056357808201518382015260200161054b565b50505050905090810190601f1680156105905780820380516001836020036101000a031916815260200191505b50935050505060405180910390a15050565b610618826000836040518082805190602001908083835b602083106105d85780518252601f1990920191602091820191016105b9565b6001836020036101000a0380198251168184511680821785525050505050509050019150509081526020016040519081900390209063ffffffff6106a716565b7fbfec83d64eaa953f2708271a023ab9ee82057f8f3578d548c1a4ba0b5b7004898282604051600160a060020a038316815260406020820181815290820183818151815260200191508051906020019080838360008381101561056357808201518382015260200161054b565b600160a060020a0316600090815260209190915260409020805460ff19169055565b600160a060020a0316600090815260209190915260409020805460ff191660011790555600a165627a7a723058202e760253f463f787a048e9d01ccfaac66a502c40637d6f43c1f286623ceb71b30029",
  "source": "pragma solidity ^0.4.18;\n\nimport \"./Roles.sol\";\n\n\n/**\n * @title RBAC (Role-Based Access Control)\n * @author Matt Condon (@Shrugs)\n * @dev Stores and provides setters and getters for roles and addresses.\n *      Supports unlimited numbers of roles and addresses.\n *      See //contracts/mocks/RBACMock.sol for an example of usage.\n * This RBAC method uses strings to key roles. It may be beneficial\n *  for you to write your own implementation of this interface using Enums or similar.\n * It's also recommended that you define constants in the contract, like ROLE_ADMIN below,\n *  to avoid typos.\n */\ncontract RBAC {\n  using Roles for Roles.Role;\n\n  mapping (string => Roles.Role) private roles;\n\n  event RoleAdded(address addr, string roleName);\n  event RoleRemoved(address addr, string roleName);\n\n  /**\n   * A constant role name for indicating admins.\n   */\n  string public constant ROLE_ADMIN = \"admin\";\n\n  /**\n   * @dev constructor. Sets msg.sender as admin by default\n   */\n  function RBAC()\n    public\n  {\n    addRole(msg.sender, ROLE_ADMIN);\n  }\n\n  /**\n   * @dev reverts if addr does not have role\n   * @param addr address\n   * @param roleName the name of the role\n   * // reverts\n   */\n  function checkRole(address addr, string roleName)\n    view\n    public\n  {\n    roles[roleName].check(addr);\n  }\n\n  /**\n   * @dev determine if addr has role\n   * @param addr address\n   * @param roleName the name of the role\n   * @return bool\n   */\n  function hasRole(address addr, string roleName)\n    view\n    public\n    returns (bool)\n  {\n    return roles[roleName].has(addr);\n  }\n\n  /**\n   * @dev add a role to an address\n   * @param addr address\n   * @param roleName the name of the role\n   */\n  function adminAddRole(address addr, string roleName)\n    onlyAdmin\n    public\n  {\n    addRole(addr, roleName);\n  }\n\n  /**\n   * @dev remove a role from an address\n   * @param addr address\n   * @param roleName the name of the role\n   */\n  function adminRemoveRole(address addr, string roleName)\n    onlyAdmin\n    public\n  {\n    removeRole(addr, roleName);\n  }\n\n  /**\n   * @dev add a role to an address\n   * @param addr address\n   * @param roleName the name of the role\n   */\n  function addRole(address addr, string roleName)\n    internal\n  {\n    roles[roleName].add(addr);\n    RoleAdded(addr, roleName);\n  }\n\n  /**\n   * @dev remove a role from an address\n   * @param addr address\n   * @param roleName the name of the role\n   */\n  function removeRole(address addr, string roleName)\n    internal\n  {\n    roles[roleName].remove(addr);\n    RoleRemoved(addr, roleName);\n  }\n\n  /**\n   * @dev modifier to scope access to a single role (uses msg.sender as addr)\n   * @param roleName the name of the role\n   * // reverts\n   */\n  modifier onlyRole(string roleName)\n  {\n    checkRole(msg.sender, roleName);\n    _;\n  }\n\n  /**\n   * @dev modifier to scope access to admins\n   * // reverts\n   */\n  modifier onlyAdmin()\n  {\n    checkRole(msg.sender, ROLE_ADMIN);\n    _;\n  }\n\n  /**\n   * @dev modifier to scope access to a set of roles (uses msg.sender as addr)\n   * @param roleNames the names of the roles to scope access to\n   * // reverts\n   *\n   * @TODO - when solidity supports dynamic arrays as arguments to modifiers, provide this\n   *  see: https://github.com/ethereum/solidity/issues/2467\n   */\n  // modifier onlyRoles(string[] roleNames) {\n  //     bool hasAnyRole = false;\n  //     for (uint8 i = 0; i < roleNames.length; i++) {\n  //         if (hasRole(msg.sender, roleNames[i])) {\n  //             hasAnyRole = true;\n  //             break;\n  //         }\n  //     }\n\n  //     require(hasAnyRole);\n\n  //     _;\n  // }\n}\n",
  "sourcePath": "D:\\src\\Git\\hackathon2018\\hackathon-demo\\node_modules\\zeppelin-solidity\\contracts\\ownership\\rbac\\RBAC.sol",
  "compiler": {
    "name": "solc",
    "version": "0.4.19+commit.c4cbbb05.Emscripten.clang"
  },
  "schemaVersion": "2.0.0",
  "updatedAt": "2018-04-11T05:58:02.471Z"
}